:1000000028C042C041C040C03FC03EC03DC03CC00F
:100010003BC03AC039C038C037C036C035C01BC13C
:1000200018C15FC15EC15DC15CC15BC151C159C135
:1000300058C157C141C146C154C153C152C151C138
:1000400050C14FC14EC133C14CC14BC14AC149C15E
:1000500010C111241FBECFE5D2E0DEBFCDBF11E03D
:10006000A0E6B0E0ECE7F3E002C005900D92A2300C
:10007000B107D9F721E0A2E0B1E001C01D92A330A1
:10008000B207E1F702D078C1BBCFC09887B38D61CA
:1000900087BB8EE107D080E005D0682F88ED90E027
:1000A000C0D0F9CF853010F0809302018091020119
:1000B0000895813011F0C0980895C09A08951F9353
:1000C000CF93DF93CDB7DEB729970FB6F894DEBF95
:1000D0000FBECDBF182F662371F0262F30E040E011
:1000E00050E063EE7EE680E090E008D129833A8319
:1000F0004B835C8308C087E69CE5A0E0B0E0898381
:100100009A83AB83BC8319868985811778F51D8214
:100110001E821F8218864D815E816F81788589815C
:100120009A81AB81BC81481759076A077B07C4F4E1
:100130008D819E81AF81B8850196A11DB11D8D83F2
:100140009E83AF83B8874D815E816F817885898179
:100150009A81AB81BC81481759076A077B0744F332
:1001600089858F5F89878985811788F229960FB6DF
:10017000F894DEBF0FBECDBFDF91CF911F910895E0
:100180001F93CF93DF93662309F447C0162F803265
:1001900019F489E094DF41C08F35D1F18D3508F035
:1001A0008CE5813280F12FED280F30E0F901E45623
:1001B000FF4FD081F901E05AFF4FC081863251F4E0
:1001C00081E077DF612F81E07ADF80E072DF612FED
:1001D00083E075DFCC2399F081E06BDFD0FF04C0B2
:1001E000612F81E06CDF03C0612F83E068DF80E076
:1001F00060DF612F81E063DFD695C15069F7612F21
:1002000083E05DDF0AC0D091D700C0919B00E2CFB0
:10021000D091D600C0919A00DDCFDF91CF911F9190
:100220000895FF920F931F93CF93DF938C01F62EC7
:1002300059C0E80121968D3508F44FC090E0FC01CB
:10024000E156F109EA31F10508F04BC0E15FFF4FDB
:10025000099481E02EDFF8018181882311F0E80103
:1002600022968F7060E08F5F2ADF80E022DF8E01B0
:1002700039C0F8018181882319F00E5F1F4F01C03A
:100280008E018F70982F990F990F890F880FF801A1
:100290009081992311F00F5F1F4F9F70890F9BEF83
:1002A000980F9A31F8F480930201F82E1BC088B39E
:1002B0008C6088BB8E0116C088B3837F846088BB46
:1002C0008E0110C088B3837F886088BB8E010AC00E
:1002D00088B3837F88BB8E0105C06F2D51DF8E01EF
:1002E00001C08E01F80180818111A3CF81E090E0EF
:1002F000DF91CF911F910F91FF900895052E97FBED
:1003000016F400940FD057FD05D014D007FC02D08E
:1003100046F408C050954095309521953F4F4F4F7A
:100320005F4F089590958095709561957F4F8F4FA1
:100330009F4F0895A1E21A2EAA1BBB1BFD010DC001
:10034000AA1FBB1FEE1FFF1FA217B307E407F50785
:1003500020F0A21BB30BE40BF50B661F771F881F61
:10036000991F1A9469F760957095809590959B01F7
:0C037000AC01BD01CF010895F894FFCF4F
:10037C000606000700030605060005060606050529
:10038C000505050505050505050606000500060617
:10039C000204040301040304020403040202030420
:1003AC000403030103040304040406000E2D0037A8
:1003BC00000721121200150C1E1516000103070F61
:1003CC001F1E1C1810382A000E003329010E0A06B5
:1003DC00010B040F0301020D0002000904050700C4
:1003EC0003070106020C13007A3230682056565669
:1003FC00204445204B453046462F4220454D313058
:10040C00474F61306232206D6232206C623261354E
:02041C000000DE
:00000001FF
